{
  "_format": "hh-sol-artifact-1",
  "contractName": "PollManager",
  "sourceName": "contracts/PollManager.sol",
  "abi": [
    {
      "inputs": [
        {
          "internalType": "string",
          "name": "pollName",
          "type": "string"
        }
      ],
      "name": "createPoll",
      "outputs": [],
      "stateMutability": "nonpayable",
      "type": "function"
    },
    {
      "inputs": [
        {
          "internalType": "string",
          "name": "pollName",
          "type": "string"
        },
        {
          "internalType": "address",
          "name": "voterAddress",
          "type": "address"
        },
        {
          "internalType": "string",
          "name": "vote",
          "type": "string"
        }
      ],
      "name": "insertVote",
      "outputs": [],
      "stateMutability": "nonpayable",
      "type": "function"
    },
    {
      "inputs": [
        {
          "internalType": "string",
          "name": "pollName",
          "type": "string"
        },
        {
          "internalType": "address",
          "name": "voterAddress",
          "type": "address"
        }
      ],
      "name": "retrieveVote",
      "outputs": [
        {
          "internalType": "string",
          "name": "",
          "type": "string"
        }
      ],
      "stateMutability": "view",
      "type": "function"
    },
    {
      "inputs": [
        {
          "internalType": "string",
          "name": "pollName",
          "type": "string"
        }
      ],
      "name": "retrieveVotes",
      "outputs": [
        {
          "internalType": "string[]",
          "name": "",
          "type": "string[]"
        }
      ],
      "stateMutability": "view",
      "type": "function"
    }
  ],
  "bytecode": "0x608060405234801561001057600080fd5b506116a8806100206000396000f3fe608060405234801561001057600080fd5b506004361061004c5760003560e01c806350f2f9891461005157806374a9ced914610081578063aa342a921461009d578063cfc54c55146100b9575b600080fd5b61006b60048036038101906100669190610863565b6100e9565b6040516100789190610b55565b60405180910390f35b61009b60048036038101906100969190610863565b6101d5565b005b6100b760048036038101906100b29190610939565b6102a2565b005b6100d360048036038101906100ce91906108e5565b6103cd565b6040516100e09190610b77565b60405180910390f35b606061010d6040518060600160405280602281526020016116516022913983610519565b60008260405161011d9190610af3565b908152602001604051809103902060009054906101000a900473ffffffffffffffffffffffffffffffffffffffff1673ffffffffffffffffffffffffffffffffffffffff1663851b6ef26040518163ffffffff1660e01b815260040160006040518083038186803b15801561019157600080fd5b505afa1580156101a5573d6000803e3d6000fd5b505050506040513d6000823e3d601f19601f820116820180604052508101906101ce9190610822565b9050919050565b6102146040518060400160405280601881526020017f4372656174696e67206120706f6c6c207469746c65643a20000000000000000081525082610519565b600060405161022290610680565b604051809103906000f08015801561023e573d6000803e3d6000fd5b509050806000836040516102529190610af3565b908152602001604051809103902060006101000a81548173ffffffffffffffffffffffffffffffffffffffff021916908373ffffffffffffffffffffffffffffffffffffffff1602179055505050565b6103186040518060400160405280601481526020017f496e73657274696e6720766f746520696e746f20000000000000000000000000815250846040518060400160405280601d81526020017f666f722074686520757365722077697468207468652061646472657373000000815250856105b5565b600080846040516103299190610af3565b908152602001604051809103902060009054906101000a900473ffffffffffffffffffffffffffffffffffffffff1690508073ffffffffffffffffffffffffffffffffffffffff166318b7fe5d84846040518363ffffffff1660e01b8152600401610395929190610b25565b600060405180830381600087803b1580156103af57600080fd5b505af11580156103c3573d6000803e3d6000fd5b5050505050505050565b60606104456040518060400160405280601b81526020017f47657474696e6720766f74652066726f6d2074686520706f6c6c200000000000815250846040518060400160405280601d81526020017f666f722074686520757365722077697468207468652061646472657373000000815250856105b5565b6000836040516104559190610af3565b908152602001604051809103902060009054906101000a900473ffffffffffffffffffffffffffffffffffffffff1673ffffffffffffffffffffffffffffffffffffffff16638d337b81836040518263ffffffff1660e01b81526004016104bc9190610b0a565b60006040518083038186803b1580156104d457600080fd5b505afa1580156104e8573d6000803e3d6000fd5b505050506040513d6000823e3d601f19601f8201168201806040525081019061051191906108a4565b905092915050565b6105b1828260405160240161052f929190610b99565b6040516020818303038152906040527f4b5c4277000000000000000000000000000000000000000000000000000000007bffffffffffffffffffffffffffffffffffffffffffffffffffffffff19166020820180517bffffffffffffffffffffffffffffffffffffffffffffffffffffffff8381831617835250505050610657565b5050565b610651848484846040516024016105cf9493929190610bd0565b6040516020818303038152906040527f6d572f44000000000000000000000000000000000000000000000000000000007bffffffffffffffffffffffffffffffffffffffffffffffffffffffff19166020820180517bffffffffffffffffffffffffffffffffffffffffffffffffffffffff8381831617835250505050610657565b50505050565b60008151905060006a636f6e736f6c652e6c6f679050602083016000808483855afa5050505050565b61083780610e1a83390190565b60006106a061069b84610c4f565b610c2a565b905080838252602082019050828560208602820111156106bf57600080fd5b60005b8581101561070957815167ffffffffffffffff8111156106e157600080fd5b8086016106ee89826107f8565b855260208501945060208401935050506001810190506106c2565b5050509392505050565b600061072661072184610c7b565b610c2a565b90508281526020810184848401111561073e57600080fd5b610749848285610d4f565b509392505050565b600061076461075f84610c7b565b610c2a565b90508281526020810184848401111561077c57600080fd5b610787848285610d5e565b509392505050565b60008135905061079e81610e02565b92915050565b600082601f8301126107b557600080fd5b81516107c584826020860161068d565b91505092915050565b600082601f8301126107df57600080fd5b81356107ef848260208601610713565b91505092915050565b600082601f83011261080957600080fd5b8151610819848260208601610751565b91505092915050565b60006020828403121561083457600080fd5b600082015167ffffffffffffffff81111561084e57600080fd5b61085a848285016107a4565b91505092915050565b60006020828403121561087557600080fd5b600082013567ffffffffffffffff81111561088f57600080fd5b61089b848285016107ce565b91505092915050565b6000602082840312156108b657600080fd5b600082015167ffffffffffffffff8111156108d057600080fd5b6108dc848285016107f8565b91505092915050565b600080604083850312156108f857600080fd5b600083013567ffffffffffffffff81111561091257600080fd5b61091e858286016107ce565b925050602061092f8582860161078f565b9150509250929050565b60008060006060848603121561094e57600080fd5b600084013567ffffffffffffffff81111561096857600080fd5b610974868287016107ce565b93505060206109858682870161078f565b925050604084013567ffffffffffffffff8111156109a257600080fd5b6109ae868287016107ce565b9150509250925092565b60006109c48383610a50565b905092915050565b6109d581610d1d565b82525050565b60006109e682610cbc565b6109f08185610cdf565b935083602082028501610a0285610cac565b8060005b85811015610a3e5784840389528151610a1f85826109b8565b9450610a2a83610cd2565b925060208a01995050600181019050610a06565b50829750879550505050505092915050565b6000610a5b82610cc7565b610a658185610cf0565b9350610a75818560208601610d5e565b610a7e81610df1565b840191505092915050565b6000610a9482610cc7565b610a9e8185610d01565b9350610aae818560208601610d5e565b610ab781610df1565b840191505092915050565b6000610acd82610cc7565b610ad78185610d12565b9350610ae7818560208601610d5e565b80840191505092915050565b6000610aff8284610ac2565b915081905092915050565b6000602082019050610b1f60008301846109cc565b92915050565b6000604082019050610b3a60008301856109cc565b8181036020830152610b4c8184610a89565b90509392505050565b60006020820190508181036000830152610b6f81846109db565b905092915050565b60006020820190508181036000830152610b918184610a89565b905092915050565b60006040820190508181036000830152610bb38185610a89565b90508181036020830152610bc78184610a89565b90509392505050565b60006080820190508181036000830152610bea8187610a89565b90508181036020830152610bfe8186610a89565b90508181036040830152610c128185610a89565b9050610c2160608301846109cc565b95945050505050565b6000610c34610c45565b9050610c408282610d91565b919050565b6000604051905090565b600067ffffffffffffffff821115610c6a57610c69610dc2565b5b602082029050602081019050919050565b600067ffffffffffffffff821115610c9657610c95610dc2565b5b610c9f82610df1565b9050602081019050919050565b6000819050602082019050919050565b600081519050919050565b600081519050919050565b6000602082019050919050565b600082825260208201905092915050565b600082825260208201905092915050565b600082825260208201905092915050565b600081905092915050565b6000610d2882610d2f565b9050919050565b600073ffffffffffffffffffffffffffffffffffffffff82169050919050565b82818337600083830152505050565b60005b83811015610d7c578082015181840152602081019050610d61565b83811115610d8b576000848401525b50505050565b610d9a82610df1565b810181811067ffffffffffffffff82111715610db957610db8610dc2565b5b80604052505050565b7f4e487b7100000000000000000000000000000000000000000000000000000000600052604160045260246000fd5b6000601f19601f8301169050919050565b610e0b81610d1d565b8114610e1657600080fd5b5056fe608060405234801561001057600080fd5b50610817806100206000396000f3fe608060405234801561001057600080fd5b50600436106100415760003560e01c806318b7fe5d14610046578063851b6ef2146100625780638d337b8114610080575b600080fd5b610060600480360381019061005b9190610435565b6100b0565b005b61006a610143565b6040516100779190610584565b60405180910390f35b61009a6004803603810190610095919061040c565b61021c565b6040516100a791906105a6565b60405180910390f35b806000808473ffffffffffffffffffffffffffffffffffffffff1673ffffffffffffffffffffffffffffffffffffffff16815260200190815260200160002090805190602001906101029291906102ec565b5060018190806001815401808255809150506001900390600052602060002001600090919091909150908051906020019061013e9291906102ec565b505050565b60606001805480602002602001604051908101604052809291908181526020016000905b82821015610213578382906000526020600020018054610186906106f8565b80601f01602080910402602001604051908101604052809291908181526020018280546101b2906106f8565b80156101ff5780601f106101d4576101008083540402835291602001916101ff565b820191906000526020600020905b8154815290600101906020018083116101e257829003601f168201915b505050505081526020019060010190610167565b50505050905090565b60606000808373ffffffffffffffffffffffffffffffffffffffff1673ffffffffffffffffffffffffffffffffffffffff1681526020019081526020016000208054610267906106f8565b80601f0160208091040260200160405190810160405280929190818152602001828054610293906106f8565b80156102e05780601f106102b5576101008083540402835291602001916102e0565b820191906000526020600020905b8154815290600101906020018083116102c357829003601f168201915b50505050509050919050565b8280546102f8906106f8565b90600052602060002090601f01602090048101928261031a5760008555610361565b82601f1061033357805160ff1916838001178555610361565b82800160010185558215610361579182015b82811115610360578251825591602001919060010190610345565b5b50905061036e9190610372565b5090565b5b8082111561038b576000816000905550600101610373565b5090565b60006103a261039d846105ed565b6105c8565b9050828152602081018484840111156103ba57600080fd5b6103c58482856106b6565b509392505050565b6000813590506103dc816107ca565b92915050565b600082601f8301126103f357600080fd5b813561040384826020860161038f565b91505092915050565b60006020828403121561041e57600080fd5b600061042c848285016103cd565b91505092915050565b6000806040838503121561044857600080fd5b6000610456858286016103cd565b925050602083013567ffffffffffffffff81111561047357600080fd5b61047f858286016103e2565b9150509250929050565b60006104958383610512565b905092915050565b60006104a88261062e565b6104b28185610651565b9350836020820285016104c48561061e565b8060005b8581101561050057848403895281516104e18582610489565b94506104ec83610644565b925060208a019950506001810190506104c8565b50829750879550505050505092915050565b600061051d82610639565b6105278185610662565b93506105378185602086016106c5565b610540816107b9565b840191505092915050565b600061055682610639565b6105608185610673565b93506105708185602086016106c5565b610579816107b9565b840191505092915050565b6000602082019050818103600083015261059e818461049d565b905092915050565b600060208201905081810360008301526105c0818461054b565b905092915050565b60006105d26105e3565b90506105de828261072a565b919050565b6000604051905090565b600067ffffffffffffffff8211156106085761060761078a565b5b610611826107b9565b9050602081019050919050565b6000819050602082019050919050565b600081519050919050565b600081519050919050565b6000602082019050919050565b600082825260208201905092915050565b600082825260208201905092915050565b600082825260208201905092915050565b600061068f82610696565b9050919050565b600073ffffffffffffffffffffffffffffffffffffffff82169050919050565b82818337600083830152505050565b60005b838110156106e35780820151818401526020810190506106c8565b838111156106f2576000848401525b50505050565b6000600282049050600182168061071057607f821691505b602082108114156107245761072361075b565b5b50919050565b610733826107b9565b810181811067ffffffffffffffff821117156107525761075161078a565b5b80604052505050565b7f4e487b7100000000000000000000000000000000000000000000000000000000600052602260045260246000fd5b7f4e487b7100000000000000000000000000000000000000000000000000000000600052604160045260246000fd5b6000601f19601f8301169050919050565b6107d381610684565b81146107de57600080fd5b5056fea264697066735822122021122d2b96ec918f7bb0cc6165f4dee317bb78ad330dd910bde5899239b511d564736f6c6343000804003347657474696e6720616c6c20766f7465732066726f6d2074686520706f6c6c3a2020a2646970667358221220f520346a52dbc026f8b6e1924530bb2c0fdb8076b92984c69389848eb20edf6a64736f6c63430008040033",
  "linkReferences": {},
  "deployedLinkReferences": {}
}