{
  "_format": "hh-sol-artifact-1",
  "contractName": "PollManager",
  "sourceName": "contracts/PollManager.sol",
  "abi": [
    {
      "inputs": [
        {
          "internalType": "string",
          "name": "pollName",
          "type": "string"
        }
      ],
      "name": "createPoll",
      "outputs": [],
      "stateMutability": "nonpayable",
      "type": "function"
    },
    {
      "inputs": [
        {
          "internalType": "string",
          "name": "pollName",
          "type": "string"
        },
        {
          "internalType": "string",
          "name": "vote",
          "type": "string"
        }
      ],
      "name": "insertVote",
      "outputs": [],
      "stateMutability": "nonpayable",
      "type": "function"
    },
    {
      "inputs": [
        {
          "internalType": "string",
          "name": "pollName",
          "type": "string"
        }
      ],
      "name": "retrieveVotes",
      "outputs": [
        {
          "internalType": "string[]",
          "name": "",
          "type": "string[]"
        }
      ],
      "stateMutability": "view",
      "type": "function"
    }
  ],
  "bytecode": "0x608060405234801561001057600080fd5b50610fa8806100206000396000f3fe608060405234801561001057600080fd5b50600436106100415760003560e01c806350f2f9891461004657806374a9ced914610076578063b8500b9314610092575b600080fd5b610060600480360381019061005b919061056d565b6100ae565b60405161006d919061075d565b60405180910390f35b610090600480360381019061008b919061056d565b61019a565b005b6100ac60048036038101906100a791906105ae565b610228565b005b60606100d2604051806060016040528060228152602001610f5160229139836102da565b6000826040516100e29190610746565b908152602001604051809103902060009054906101000a900473ffffffffffffffffffffffffffffffffffffffff1673ffffffffffffffffffffffffffffffffffffffff1663851b6ef26040518163ffffffff1660e01b815260040160006040518083038186803b15801561015657600080fd5b505afa15801561016a573d6000803e3d6000fd5b505050506040513d6000823e3d601f19601f82011682018060405250810190610193919061052c565b9050919050565b60006040516101a89061039f565b604051809103906000f0801580156101c4573d6000803e3d6000fd5b509050806000836040516101d89190610746565b908152602001604051809103902060006101000a81548173ffffffffffffffffffffffffffffffffffffffff021916908373ffffffffffffffffffffffffffffffffffffffff1602179055505050565b600080836040516102399190610746565b908152602001604051809103902060009054906101000a900473ffffffffffffffffffffffffffffffffffffffff1690508073ffffffffffffffffffffffffffffffffffffffff16639192f1c8836040518263ffffffff1660e01b81526004016102a3919061077f565b600060405180830381600087803b1580156102bd57600080fd5b505af11580156102d1573d6000803e3d6000fd5b50505050505050565b61037282826040516024016102f09291906107a1565b6040516020818303038152906040527f4b5c4277000000000000000000000000000000000000000000000000000000007bffffffffffffffffffffffffffffffffffffffffffffffffffffffff19166020820180517bffffffffffffffffffffffffffffffffffffffffffffffffffffffff8381831617835250505050610376565b5050565b60008151905060006a636f6e736f6c652e6c6f679050602083016000808483855afa5050505050565b6105d28061097f83390190565b60006103bf6103ba846107fd565b6107d8565b905080838252602082019050828560208602820111156103de57600080fd5b60005b8581101561042857815167ffffffffffffffff81111561040057600080fd5b80860161040d8982610502565b855260208501945060208401935050506001810190506103e1565b5050509392505050565b600061044561044084610829565b6107d8565b90508281526020810184848401111561045d57600080fd5b6104688482856108cb565b509392505050565b600061048361047e84610829565b6107d8565b90508281526020810184848401111561049b57600080fd5b6104a68482856108da565b509392505050565b600082601f8301126104bf57600080fd5b81516104cf8482602086016103ac565b91505092915050565b600082601f8301126104e957600080fd5b81356104f9848260208601610432565b91505092915050565b600082601f83011261051357600080fd5b8151610523848260208601610470565b91505092915050565b60006020828403121561053e57600080fd5b600082015167ffffffffffffffff81111561055857600080fd5b610564848285016104ae565b91505092915050565b60006020828403121561057f57600080fd5b600082013567ffffffffffffffff81111561059957600080fd5b6105a5848285016104d8565b91505092915050565b600080604083850312156105c157600080fd5b600083013567ffffffffffffffff8111156105db57600080fd5b6105e7858286016104d8565b925050602083013567ffffffffffffffff81111561060457600080fd5b610610858286016104d8565b9150509250929050565b600061062683836106a3565b905092915050565b60006106398261086a565b610643818561088d565b9350836020820285016106558561085a565b8060005b858110156106915784840389528151610672858261061a565b945061067d83610880565b925060208a01995050600181019050610659565b50829750879550505050505092915050565b60006106ae82610875565b6106b8818561089e565b93506106c88185602086016108da565b6106d18161096d565b840191505092915050565b60006106e782610875565b6106f181856108af565b93506107018185602086016108da565b61070a8161096d565b840191505092915050565b600061072082610875565b61072a81856108c0565b935061073a8185602086016108da565b80840191505092915050565b60006107528284610715565b915081905092915050565b60006020820190508181036000830152610777818461062e565b905092915050565b6000602082019050818103600083015261079981846106dc565b905092915050565b600060408201905081810360008301526107bb81856106dc565b905081810360208301526107cf81846106dc565b90509392505050565b60006107e26107f3565b90506107ee828261090d565b919050565b6000604051905090565b600067ffffffffffffffff8211156108185761081761093e565b5b602082029050602081019050919050565b600067ffffffffffffffff8211156108445761084361093e565b5b61084d8261096d565b9050602081019050919050565b6000819050602082019050919050565b600081519050919050565b600081519050919050565b6000602082019050919050565b600082825260208201905092915050565b600082825260208201905092915050565b600082825260208201905092915050565b600081905092915050565b82818337600083830152505050565b60005b838110156108f85780820151818401526020810190506108dd565b83811115610907576000848401525b50505050565b6109168261096d565b810181811067ffffffffffffffff821117156109355761093461093e565b5b80604052505050565b7f4e487b7100000000000000000000000000000000000000000000000000000000600052604160045260246000fd5b6000601f19601f830116905091905056fe608060405234801561001057600080fd5b506105b2806100206000396000f3fe608060405234801561001057600080fd5b50600436106100365760003560e01c8063851b6ef21461003b5780639192f1c814610059575b600080fd5b610043610075565b604051610050919061039b565b60405180910390f35b610073600480360381019061006e9190610298565b61014e565b005b60606000805480602002602001604051908101604052809291908181526020016000905b828210156101455783829060005260206000200180546100b8906104aa565b80601f01602080910402602001604051908101604052809291908181526020018280546100e4906104aa565b80156101315780601f1061010657610100808354040283529160200191610131565b820191906000526020600020905b81548152906001019060200180831161011457829003601f168201915b505050505081526020019060010190610099565b50505050905090565b60008190806001815401808255809150506001900390600052602060002001600090919091909150908051906020019061018992919061018d565b5050565b828054610199906104aa565b90600052602060002090601f0160209004810192826101bb5760008555610202565b82601f106101d457805160ff1916838001178555610202565b82800160010185558215610202579182015b828111156102015782518255916020019190600101906101e6565b5b50905061020f9190610213565b5090565b5b8082111561022c576000816000905550600101610214565b5090565b600061024361023e846103e2565b6103bd565b90508281526020810184848401111561025b57600080fd5b610266848285610468565b509392505050565b600082601f83011261027f57600080fd5b813561028f848260208601610230565b91505092915050565b6000602082840312156102aa57600080fd5b600082013567ffffffffffffffff8111156102c457600080fd5b6102d08482850161026e565b91505092915050565b60006102e58383610362565b905092915050565b60006102f882610423565b6103028185610446565b93508360208202850161031485610413565b8060005b85811015610350578484038952815161033185826102d9565b945061033c83610439565b925060208a01995050600181019050610318565b50829750879550505050505092915050565b600061036d8261042e565b6103778185610457565b9350610387818560208601610477565b6103908161056b565b840191505092915050565b600060208201905081810360008301526103b581846102ed565b905092915050565b60006103c76103d8565b90506103d382826104dc565b919050565b6000604051905090565b600067ffffffffffffffff8211156103fd576103fc61053c565b5b6104068261056b565b9050602081019050919050565b6000819050602082019050919050565b600081519050919050565b600081519050919050565b6000602082019050919050565b600082825260208201905092915050565b600082825260208201905092915050565b82818337600083830152505050565b60005b8381101561049557808201518184015260208101905061047a565b838111156104a4576000848401525b50505050565b600060028204905060018216806104c257607f821691505b602082108114156104d6576104d561050d565b5b50919050565b6104e58261056b565b810181811067ffffffffffffffff821117156105045761050361053c565b5b80604052505050565b7f4e487b7100000000000000000000000000000000000000000000000000000000600052602260045260246000fd5b7f4e487b7100000000000000000000000000000000000000000000000000000000600052604160045260246000fd5b6000601f19601f830116905091905056fea26469706673582212208849c20eb7e6f0f02cb4ba2e23667dba4fecc7c6710c50bcb923f3787f40e89064736f6c6343000804003347657474696e6720616c6c20766f7465732066726f6d2074686520706f6c6c3a2020a26469706673582212205fcafb8c49ff8b81d23d134f24e9789f0b44707ff265fcdce7a14fd2e5b8f8c764736f6c63430008040033",
  "linkReferences": {},
  "deployedLinkReferences": {}
}